{
  "contractName": "Permissions",
  "abi": [
    {
      "anonymous": false,
      "inputs": [
        {
          "indexed": false,
          "name": "updateAddress",
          "type": "address"
        },
        {
          "indexed": false,
          "name": "permission",
          "type": "uint8"
        },
        {
          "indexed": false,
          "name": "expiryDate",
          "type": "uint256"
        }
      ],
      "name": "updatePermissionLevelAndExpiry",
      "type": "event"
    },
    {
      "constant": true,
      "inputs": [],
      "name": "getFirstSuperAddress",
      "outputs": [
        {
          "name": "",
          "type": "address"
        }
      ],
      "payable": false,
      "stateMutability": "view",
      "type": "function"
    },
    {
      "constant": false,
      "inputs": [
        {
          "name": "updateAddress",
          "type": "address"
        },
        {
          "name": "permission",
          "type": "uint8"
        },
        {
          "name": "expiryDate",
          "type": "uint256"
        }
      ],
      "name": "changePermission",
      "outputs": [
        {
          "name": "sufficient",
          "type": "bool"
        }
      ],
      "payable": false,
      "stateMutability": "nonpayable",
      "type": "function"
    },
    {
      "constant": true,
      "inputs": [
        {
          "name": "lookupAddress",
          "type": "address"
        }
      ],
      "name": "getPermissionFromAddress",
      "outputs": [
        {
          "name": "",
          "type": "uint8"
        }
      ],
      "payable": false,
      "stateMutability": "view",
      "type": "function"
    },
    {
      "constant": true,
      "inputs": [
        {
          "name": "lookupAddress",
          "type": "address"
        }
      ],
      "name": "getPermissionExpiryFromAddress",
      "outputs": [
        {
          "name": "",
          "type": "uint256"
        }
      ],
      "payable": false,
      "stateMutability": "view",
      "type": "function"
    }
  ],
  "bytecode": "0x608060405233600260006101000a81548173ffffffffffffffffffffffffffffffffffffffff021916908373ffffffffffffffffffffffffffffffffffffffff16021790555034801561005157600080fd5b506104ff806100616000396000f300608060405260043610610062576000357c0100000000000000000000000000000000000000000000000000000000900463ffffffff1680635b6898c514610067578063890b7afc146100d95780639592005014610130578063b14b4db514610187575b600080fd5b34801561007357600080fd5b506100bf600480360381019080803573ffffffffffffffffffffffffffffffffffffffff169060200190929190803560ff169060200190929190803590602001909291905050506101ec565b604051808215151515815260200191505060405180910390f35b3480156100e557600080fd5b506100ee61040b565b604051808273ffffffffffffffffffffffffffffffffffffffff1673ffffffffffffffffffffffffffffffffffffffff16815260200191505060405180910390f35b34801561013c57600080fd5b50610171600480360381019080803573ffffffffffffffffffffffffffffffffffffffff169060200190929190505050610435565b6040518082815260200191505060405180910390f35b34801561019357600080fd5b506101c8600480360381019080803573ffffffffffffffffffffffffffffffffffffffff16906020019092919050505061047e565b604051808260028111156101d857fe5b60ff16815260200191505060405180910390f35b60008082141515156101fd57600080fd5b6001600281111561020a57fe5b6000803373ffffffffffffffffffffffffffffffffffffffff1673ffffffffffffffffffffffffffffffffffffffff16815260200190815260200160002060009054906101000a900460ff16600281111561026157fe5b14806102cd575060028081111561027457fe5b6000803373ffffffffffffffffffffffffffffffffffffffff1673ffffffffffffffffffffffffffffffffffffffff16815260200190815260200160002060009054906101000a900460ff1660028111156102cb57fe5b145b156103ff57826000808673ffffffffffffffffffffffffffffffffffffffff1673ffffffffffffffffffffffffffffffffffffffff16815260200190815260200160002060006101000a81548160ff0219169083600281111561032c57fe5b021790555081600160008673ffffffffffffffffffffffffffffffffffffffff1673ffffffffffffffffffffffffffffffffffffffff168152602001908152602001600020819055507fa838401f2d94ed998a6e350dbb9692441c15b4fb1d952da544bf5a78202d1bf9848484604051808473ffffffffffffffffffffffffffffffffffffffff1673ffffffffffffffffffffffffffffffffffffffff1681526020018360028111156103db57fe5b60ff168152602001828152602001935050505060405180910390a160019050610404565b600090505b9392505050565b6000600260009054906101000a900473ffffffffffffffffffffffffffffffffffffffff16905090565b6000600160008373ffffffffffffffffffffffffffffffffffffffff1673ffffffffffffffffffffffffffffffffffffffff168152602001908152602001600020549050919050565b60008060008373ffffffffffffffffffffffffffffffffffffffff1673ffffffffffffffffffffffffffffffffffffffff16815260200190815260200160002060009054906101000a900460ff1690509190505600a165627a7a72305820367b67184a7a2b365821b20a0d31a6cb170cd80fb09d2901eb299330ba38129a0029",
  "source": "pragma solidity ^0.4.18;\ncontract Permissions {\n    enum PermissionLevel { NONE, SUPER, OFFICER }\n    mapping (address => PermissionLevel) permissionFromAddress;\n    mapping (address => uint256) permissionExpiryFromAddress;\n    event updatePermissionLevelAndExpiry(address updateAddress, PermissionLevel permission, uint256 expiryDate);\n\n    address owner = msg.sender;\n    function getFirstSuperAddress() public view returns(address) {\n        return owner;\n    }\n    function changePermission(address updateAddress,\n                                PermissionLevel permission, uint256 expiryDate) public returns(bool sufficient) {\n        require(expiryDate != 0);\n        if(permissionFromAddress[msg.sender] == PermissionLevel.SUPER ||\n            permissionFromAddress[msg.sender] == PermissionLevel.OFFICER) {\n            permissionFromAddress[updateAddress] = permission;\n            permissionExpiryFromAddress[updateAddress] = expiryDate;\n            emit updatePermissionLevelAndExpiry(updateAddress, permission, expiryDate);\n            return true;\n        } else  {\n            return false;\n        }\n    }\n    function getPermissionFromAddress(address lookupAddress) public view returns(PermissionLevel) {\n        return permissionFromAddress[lookupAddress];\n    }\n    function getPermissionExpiryFromAddress(address lookupAddress)  public  view returns(uint256) {\n        return permissionExpiryFromAddress[lookupAddress];\n    }\n}",
  "sourcePath": "c:\\Users\\jiwan\\Documents\\hacks\\BlockIdentity\\contracts\\Permissions.sol",
  "compiler": {
    "name": "solc",
    "version": "0.4.24+commit.e67f0147.Emscripten.clang"
  },
  "schemaVersion": "2.0.1",
  "updatedAt": "2018-09-15T08:52:16.137Z"
}