{
  "contractName": "VisaStatus",
  "abi": [
    {
      "inputs": [
        {
          "name": "_permissionsAddress",
          "type": "address"
        }
      ],
      "payable": false,
      "stateMutability": "nonpayable",
      "type": "constructor"
    },
    {
      "anonymous": false,
      "inputs": [
        {
          "indexed": false,
          "name": "key",
          "type": "string"
        },
        {
          "indexed": false,
          "name": "visaStatus",
          "type": "uint8"
        },
        {
          "indexed": false,
          "name": "expiryDate",
          "type": "uint256"
        }
      ],
      "name": "updateStatusAndExpiry",
      "type": "event"
    },
    {
      "anonymous": false,
      "inputs": [
        {
          "indexed": false,
          "name": "key",
          "type": "string"
        },
        {
          "indexed": false,
          "name": "expiryDate",
          "type": "uint256"
        }
      ],
      "name": "updateExpiry",
      "type": "event"
    },
    {
      "constant": false,
      "inputs": [
        {
          "name": "key",
          "type": "string"
        },
        {
          "name": "newStatus",
          "type": "uint8"
        },
        {
          "name": "expiryDate",
          "type": "uint256"
        }
      ],
      "name": "changeStatusAndExpiry",
      "outputs": [
        {
          "name": "sufficient",
          "type": "bool"
        }
      ],
      "payable": false,
      "stateMutability": "nonpayable",
      "type": "function"
    },
    {
      "constant": true,
      "inputs": [
        {
          "name": "key",
          "type": "string"
        }
      ],
      "name": "getStatusFromKey",
      "outputs": [
        {
          "name": "",
          "type": "uint8"
        }
      ],
      "payable": false,
      "stateMutability": "view",
      "type": "function"
    },
    {
      "constant": true,
      "inputs": [
        {
          "name": "key",
          "type": "string"
        }
      ],
      "name": "getStatusExpiryFromKey",
      "outputs": [
        {
          "name": "",
          "type": "uint256"
        }
      ],
      "payable": false,
      "stateMutability": "view",
      "type": "function"
    }
  ],
  "bytecode": "0x608060405233600360006101000a81548173ffffffffffffffffffffffffffffffffffffffff021916908373ffffffffffffffffffffffffffffffffffffffff16021790555034801561005157600080fd5b506040516020806109298339810180604052810190808051906020019092919050505080600260006101000a81548173ffffffffffffffffffffffffffffffffffffffff021916908373ffffffffffffffffffffffffffffffffffffffff16021790555050610864806100c56000396000f300608060405260043610610057576000357c0100000000000000000000000000000000000000000000000000000000900463ffffffff1680635724d7441461005c57806393fefde2146100e7578063d4db0bbf1461017f575b600080fd5b34801561006857600080fd5b506100c3600480360381019080803590602001908201803590602001908080601f01602080910402602001604051908101604052809392919081815260200183838082843782019150505050505091929192905050506101fc565b604051808260058111156100d357fe5b60ff16815260200191505060405180910390f35b3480156100f357600080fd5b50610165600480360381019080803590602001908201803590602001908080601f0160208091040260200160405190810160405280939291908181526020018383808284378201915050505050509192919290803560ff1690602001909291908035906020019092919050505061027d565b604051808215151515815260200191505060405180910390f35b34801561018b57600080fd5b506101e6600480360381019080803590602001908201803590602001908080601f01602080910402602001604051908101604052809392919081815260200183838082843782019150505050505091929192905050506107c3565b6040518082815260200191505060405180910390f35b600080826040518082805190602001908083835b6020831015156102355780518252602082019150602081019050602083039250610210565b6001836020036101000a038019825116818451168082178552505050505050905001915050908152602001604051809103902060009054906101000a900460ff169050919050565b600080600080600086600581111561029157fe5b1415151561029b57fe5b600260009054906101000a900473ffffffffffffffffffffffffffffffffffffffff1692508273ffffffffffffffffffffffffffffffffffffffff1663b14b4db5600360009054906101000a900473ffffffffffffffffffffffffffffffffffffffff166040518263ffffffff167c0100000000000000000000000000000000000000000000000000000000028152600401808273ffffffffffffffffffffffffffffffffffffffff1673ffffffffffffffffffffffffffffffffffffffff168152602001915050602060405180830381600087803b15801561037d57600080fd5b505af1158015610391573d6000803e3d6000fd5b505050506040513d60208110156103a757600080fd5b810190808051906020019092919050505091508273ffffffffffffffffffffffffffffffffffffffff166395920050600360009054906101000a900473ffffffffffffffffffffffffffffffffffffffff166040518263ffffffff167c0100000000000000000000000000000000000000000000000000000000028152600401808273ffffffffffffffffffffffffffffffffffffffff1673ffffffffffffffffffffffffffffffffffffffff168152602001915050602060405180830381600087803b15801561047757600080fd5b505af115801561048b573d6000803e3d6000fd5b505050506040513d60208110156104a157600080fd5b81019080805190602001909291905050509050600160028111156104c157fe5b8260028111156104cd57fe5b14806104ee57506002808111156104e057fe5b8260028111156104ec57fe5b145b80156104fa5750428110155b806105f05750600360009054906101000a900473ffffffffffffffffffffffffffffffffffffffff1673ffffffffffffffffffffffffffffffffffffffff168373ffffffffffffffffffffffffffffffffffffffff1663890b7afc6040518163ffffffff167c0100000000000000000000000000000000000000000000000000000000028152600401602060405180830381600087803b15801561059d57600080fd5b505af11580156105b1573d6000803e3d6000fd5b505050506040513d60208110156105c757600080fd5b810190808051906020019092919050505073ffffffffffffffffffffffffffffffffffffffff16145b156107b457856000886040518082805190602001908083835b60208310151561062e5780518252602082019150602081019050602083039250610609565b6001836020036101000a038019825116818451168082178552505050505050905001915050908152602001604051809103902060006101000a81548160ff0219169083600581111561067c57fe5b0217905550846001886040518082805190602001908083835b6020831015156106ba5780518252602082019150602081019050602083039250610695565b6001836020036101000a0380198251168184511680821785525050505050509050019150509081526020016040518091039020819055507f8829eaea6232ba6c3f41570e9b55278c02cccdaaa89034fc5c81bb6204d4773b878787604051808060200184600581111561072957fe5b60ff168152602001838152602001828103825285818151815260200191508051906020019080838360005b8381101561076f578082015181840152602081019050610754565b50505050905090810190601f16801561079c5780820380516001836020036101000a031916815260200191505b5094505050505060405180910390a1600193506107b9565b600093505b5050509392505050565b60006001826040518082805190602001908083835b6020831015156107fd57805182526020820191506020810190506020830392506107d8565b6001836020036101000a03801982511681845116808217855250505050505090500191505090815260200160405180910390205490509190505600a165627a7a7230582089b25a4a1d3c332112dcdad2a5bc996e6366469444961a78bb999b2dd0c5c82e0029",
  "source": "pragma solidity ^0.4.18;\nimport \"../contracts/Permissions.sol\";\ncontract VisaStatus {\n    enum Status { CITIZEN, PERMANENT_RESIDENT, LONG_TERM_WORKER, SHORT_TERM_WORKER, STUDENT, VISITOR }\n    mapping (string => Status) visaStatusFromKey;\n    mapping (string => uint256) visaStatusExpiryFromKey;\n    event updateStatusAndExpiry(string key, Status visaStatus,uint256 expiryDate);\n    event updateExpiry(string key, uint256 expiryDate);\n    address permissionsAddress;\n    address owner = msg.sender;\n    function VisaStatus(address _permissionsAddress) {\n        permissionsAddress = _permissionsAddress;\n    }\n    function changeStatusAndExpiry(string key, Status newStatus, uint256 expiryDate) public returns(bool sufficient) {\n        assert(uint(newStatus) != 0);\n        Permissions permissionRecord = Permissions(permissionsAddress);\n        Permissions.PermissionLevel accountPermission = permissionRecord.getPermissionFromAddress(owner);\n        uint256 permissionExpiry = permissionRecord.getPermissionExpiryFromAddress(owner);\n        if (((accountPermission ==  Permissions.PermissionLevel.SUPER ||\n            accountPermission ==  Permissions.PermissionLevel.OFFICER) &&\n            (permissionExpiry >= now)) ||\n            permissionRecord.getFirstSuperAddress() == owner)\n            {\n                visaStatusFromKey[key] = newStatus;\n                visaStatusExpiryFromKey[key] = expiryDate;\n                emit updateStatusAndExpiry(key, newStatus, expiryDate);\n                return true;\n            } else {\n                return false;\n            }\n    }\n    function getStatusFromKey(string key) public view returns(Status) {\n        return visaStatusFromKey[key];\n    }\n    function getStatusExpiryFromKey(string key) public view returns(uint256) {\n        return visaStatusExpiryFromKey[key];\n    }\n}",
  "sourcePath": "c:\\Users\\jiwan\\Documents\\hacks\\BlockIdentity\\contracts\\VisaStatus.sol",
  "compiler": {
    "name": "solc",
    "version": "0.4.24+commit.e67f0147.Emscripten.clang"
  },
  "schemaVersion": "2.0.1",
  "updatedAt": "2018-09-15T08:52:16.137Z"
}